{
  "_format": "hh-sol-artifact-1",
  "contractName": "BIContract",
  "sourceName": "contracts/BIContract.sol",
  "abi": [
    {
      "inputs": [
        {
          "internalType": "string",
          "name": "_name",
          "type": "string"
        },
        {
          "internalType": "string",
          "name": "_symbol",
          "type": "string"
        },
        {
          "internalType": "string",
          "name": "_initBaseURI",
          "type": "string"
        },
        {
          "internalType": "string",
          "name": "_initNotRevealedUri",
          "type": "string"
        }
      ],
      "stateMutability": "nonpayable",
      "type": "constructor"
    },
    {
      "anonymous": false,
      "inputs": [
        {
          "indexed": true,
          "internalType": "address",
          "name": "owner",
          "type": "address"
        },
        {
          "indexed": true,
          "internalType": "address",
          "name": "approved",
          "type": "address"
        },
        {
          "indexed": true,
          "internalType": "uint256",
          "name": "tokenId",
          "type": "uint256"
        }
      ],
      "name": "Approval",
      "type": "event"
    },
    {
      "anonymous": false,
      "inputs": [
        {
          "indexed": true,
          "internalType": "address",
          "name": "owner",
          "type": "address"
        },
        {
          "indexed": true,
          "internalType": "address",
          "name": "operator",
          "type": "address"
        },
        {
          "indexed": false,
          "internalType": "bool",
          "name": "approved",
          "type": "bool"
        }
      ],
      "name": "ApprovalForAll",
      "type": "event"
    },
    {
      "anonymous": false,
      "inputs": [
        {
          "indexed": true,
          "internalType": "address",
          "name": "previousOwner",
          "type": "address"
        },
        {
          "indexed": true,
          "internalType": "address",
          "name": "newOwner",
          "type": "address"
        }
      ],
      "name": "OwnershipTransferred",
      "type": "event"
    },
    {
      "anonymous": false,
      "inputs": [
        {
          "indexed": true,
          "internalType": "address",
          "name": "from",
          "type": "address"
        },
        {
          "indexed": true,
          "internalType": "address",
          "name": "to",
          "type": "address"
        },
        {
          "indexed": true,
          "internalType": "uint256",
          "name": "tokenId",
          "type": "uint256"
        }
      ],
      "name": "Transfer",
      "type": "event"
    },
    {
      "inputs": [
        {
          "internalType": "address",
          "name": "to",
          "type": "address"
        },
        {
          "internalType": "uint256",
          "name": "tokenId",
          "type": "uint256"
        }
      ],
      "name": "approve",
      "outputs": [],
      "stateMutability": "nonpayable",
      "type": "function"
    },
    {
      "inputs": [
        {
          "internalType": "address",
          "name": "owner",
          "type": "address"
        }
      ],
      "name": "balanceOf",
      "outputs": [
        {
          "internalType": "uint256",
          "name": "",
          "type": "uint256"
        }
      ],
      "stateMutability": "view",
      "type": "function"
    },
    {
      "inputs": [],
      "name": "baseExtension",
      "outputs": [
        {
          "internalType": "string",
          "name": "",
          "type": "string"
        }
      ],
      "stateMutability": "view",
      "type": "function"
    },
    {
      "inputs": [],
      "name": "baseURI",
      "outputs": [
        {
          "internalType": "string",
          "name": "",
          "type": "string"
        }
      ],
      "stateMutability": "view",
      "type": "function"
    },
    {
      "inputs": [],
      "name": "cost",
      "outputs": [
        {
          "internalType": "uint256",
          "name": "",
          "type": "uint256"
        }
      ],
      "stateMutability": "view",
      "type": "function"
    },
    {
      "inputs": [
        {
          "internalType": "uint256",
          "name": "tokenId",
          "type": "uint256"
        }
      ],
      "name": "getApproved",
      "outputs": [
        {
          "internalType": "address",
          "name": "",
          "type": "address"
        }
      ],
      "stateMutability": "view",
      "type": "function"
    },
    {
      "inputs": [],
      "name": "getOwner",
      "outputs": [
        {
          "internalType": "address",
          "name": "",
          "type": "address"
        }
      ],
      "stateMutability": "view",
      "type": "function"
    },
    {
      "inputs": [
        {
          "internalType": "address",
          "name": "owner",
          "type": "address"
        },
        {
          "internalType": "address",
          "name": "operator",
          "type": "address"
        }
      ],
      "name": "isApprovedForAll",
      "outputs": [
        {
          "internalType": "bool",
          "name": "",
          "type": "bool"
        }
      ],
      "stateMutability": "view",
      "type": "function"
    },
    {
      "inputs": [],
      "name": "maxMintAmount",
      "outputs": [
        {
          "internalType": "uint256",
          "name": "",
          "type": "uint256"
        }
      ],
      "stateMutability": "view",
      "type": "function"
    },
    {
      "inputs": [],
      "name": "maxSupply",
      "outputs": [
        {
          "internalType": "uint256",
          "name": "",
          "type": "uint256"
        }
      ],
      "stateMutability": "view",
      "type": "function"
    },
    {
      "inputs": [
        {
          "internalType": "address",
          "name": "_to",
          "type": "address"
        },
        {
          "internalType": "uint256",
          "name": "_mintAmount",
          "type": "uint256"
        }
      ],
      "name": "mint",
      "outputs": [],
      "stateMutability": "payable",
      "type": "function"
    },
    {
      "inputs": [],
      "name": "name",
      "outputs": [
        {
          "internalType": "string",
          "name": "",
          "type": "string"
        }
      ],
      "stateMutability": "view",
      "type": "function"
    },
    {
      "inputs": [],
      "name": "notRevealedUri",
      "outputs": [
        {
          "internalType": "string",
          "name": "",
          "type": "string"
        }
      ],
      "stateMutability": "view",
      "type": "function"
    },
    {
      "inputs": [],
      "name": "owner",
      "outputs": [
        {
          "internalType": "address",
          "name": "",
          "type": "address"
        }
      ],
      "stateMutability": "view",
      "type": "function"
    },
    {
      "inputs": [
        {
          "internalType": "uint256",
          "name": "tokenId",
          "type": "uint256"
        }
      ],
      "name": "ownerOf",
      "outputs": [
        {
          "internalType": "address",
          "name": "",
          "type": "address"
        }
      ],
      "stateMutability": "view",
      "type": "function"
    },
    {
      "inputs": [
        {
          "internalType": "bool",
          "name": "_state",
          "type": "bool"
        }
      ],
      "name": "pause",
      "outputs": [],
      "stateMutability": "nonpayable",
      "type": "function"
    },
    {
      "inputs": [],
      "name": "paused",
      "outputs": [
        {
          "internalType": "bool",
          "name": "",
          "type": "bool"
        }
      ],
      "stateMutability": "view",
      "type": "function"
    },
    {
      "inputs": [
        {
          "internalType": "address",
          "name": "_user",
          "type": "address"
        }
      ],
      "name": "removeWhitelistUser",
      "outputs": [],
      "stateMutability": "nonpayable",
      "type": "function"
    },
    {
      "inputs": [],
      "name": "renounceOwnership",
      "outputs": [],
      "stateMutability": "nonpayable",
      "type": "function"
    },
    {
      "inputs": [],
      "name": "reveal",
      "outputs": [],
      "stateMutability": "nonpayable",
      "type": "function"
    },
    {
      "inputs": [],
      "name": "revealed",
      "outputs": [
        {
          "internalType": "bool",
          "name": "",
          "type": "bool"
        }
      ],
      "stateMutability": "view",
      "type": "function"
    },
    {
      "inputs": [
        {
          "internalType": "address",
          "name": "from",
          "type": "address"
        },
        {
          "internalType": "address",
          "name": "to",
          "type": "address"
        },
        {
          "internalType": "uint256",
          "name": "tokenId",
          "type": "uint256"
        }
      ],
      "name": "safeTransferFrom",
      "outputs": [],
      "stateMutability": "nonpayable",
      "type": "function"
    },
    {
      "inputs": [
        {
          "internalType": "address",
          "name": "from",
          "type": "address"
        },
        {
          "internalType": "address",
          "name": "to",
          "type": "address"
        },
        {
          "internalType": "uint256",
          "name": "tokenId",
          "type": "uint256"
        },
        {
          "internalType": "bytes",
          "name": "_data",
          "type": "bytes"
        }
      ],
      "name": "safeTransferFrom",
      "outputs": [],
      "stateMutability": "nonpayable",
      "type": "function"
    },
    {
      "inputs": [
        {
          "internalType": "address",
          "name": "operator",
          "type": "address"
        },
        {
          "internalType": "bool",
          "name": "approved",
          "type": "bool"
        }
      ],
      "name": "setApprovalForAll",
      "outputs": [],
      "stateMutability": "nonpayable",
      "type": "function"
    },
    {
      "inputs": [
        {
          "internalType": "string",
          "name": "_newBaseExtension",
          "type": "string"
        }
      ],
      "name": "setBaseExtension",
      "outputs": [],
      "stateMutability": "nonpayable",
      "type": "function"
    },
    {
      "inputs": [
        {
          "internalType": "string",
          "name": "_newBaseURI",
          "type": "string"
        }
      ],
      "name": "setBaseURI",
      "outputs": [],
      "stateMutability": "nonpayable",
      "type": "function"
    },
    {
      "inputs": [
        {
          "internalType": "uint256",
          "name": "_newCost",
          "type": "uint256"
        }
      ],
      "name": "setCost",
      "outputs": [],
      "stateMutability": "nonpayable",
      "type": "function"
    },
    {
      "inputs": [
        {
          "internalType": "string",
          "name": "_notRevealedURI",
          "type": "string"
        }
      ],
      "name": "setNotRevealedURI",
      "outputs": [],
      "stateMutability": "nonpayable",
      "type": "function"
    },
    {
      "inputs": [
        {
          "internalType": "uint256",
          "name": "_newmaxMintAmount",
          "type": "uint256"
        }
      ],
      "name": "setmaxMintAmount",
      "outputs": [],
      "stateMutability": "nonpayable",
      "type": "function"
    },
    {
      "inputs": [
        {
          "internalType": "bytes4",
          "name": "interfaceId",
          "type": "bytes4"
        }
      ],
      "name": "supportsInterface",
      "outputs": [
        {
          "internalType": "bool",
          "name": "",
          "type": "bool"
        }
      ],
      "stateMutability": "view",
      "type": "function"
    },
    {
      "inputs": [],
      "name": "symbol",
      "outputs": [
        {
          "internalType": "string",
          "name": "",
          "type": "string"
        }
      ],
      "stateMutability": "view",
      "type": "function"
    },
    {
      "inputs": [
        {
          "internalType": "uint256",
          "name": "index",
          "type": "uint256"
        }
      ],
      "name": "tokenByIndex",
      "outputs": [
        {
          "internalType": "uint256",
          "name": "",
          "type": "uint256"
        }
      ],
      "stateMutability": "view",
      "type": "function"
    },
    {
      "inputs": [
        {
          "internalType": "address",
          "name": "owner",
          "type": "address"
        },
        {
          "internalType": "uint256",
          "name": "index",
          "type": "uint256"
        }
      ],
      "name": "tokenOfOwnerByIndex",
      "outputs": [
        {
          "internalType": "uint256",
          "name": "",
          "type": "uint256"
        }
      ],
      "stateMutability": "view",
      "type": "function"
    },
    {
      "inputs": [
        {
          "internalType": "uint256",
          "name": "tokenId",
          "type": "uint256"
        }
      ],
      "name": "tokenURI",
      "outputs": [
        {
          "internalType": "string",
          "name": "",
          "type": "string"
        }
      ],
      "stateMutability": "view",
      "type": "function"
    },
    {
      "inputs": [],
      "name": "totalSupply",
      "outputs": [
        {
          "internalType": "uint256",
          "name": "",
          "type": "uint256"
        }
      ],
      "stateMutability": "view",
      "type": "function"
    },
    {
      "inputs": [
        {
          "internalType": "address",
          "name": "from",
          "type": "address"
        },
        {
          "internalType": "address",
          "name": "to",
          "type": "address"
        },
        {
          "internalType": "uint256",
          "name": "tokenId",
          "type": "uint256"
        }
      ],
      "name": "transferFrom",
      "outputs": [],
      "stateMutability": "nonpayable",
      "type": "function"
    },
    {
      "inputs": [
        {
          "internalType": "address",
          "name": "newOwner",
          "type": "address"
        }
      ],
      "name": "transferOwnership",
      "outputs": [],
      "stateMutability": "nonpayable",
      "type": "function"
    },
    {
      "inputs": [
        {
          "internalType": "address",
          "name": "_owner",
          "type": "address"
        }
      ],
      "name": "walletOfOwner",
      "outputs": [
        {
          "internalType": "uint256[]",
          "name": "",
          "type": "uint256[]"
        }
      ],
      "stateMutability": "view",
      "type": "function"
    },
    {
      "inputs": [
        {
          "internalType": "address",
          "name": "_user",
          "type": "address"
        }
      ],
      "name": "whitelistUser",
      "outputs": [],
      "stateMutability": "nonpayable",
      "type": "function"
    },
    {
      "inputs": [
        {
          "internalType": "address",
          "name": "",
          "type": "address"
        }
      ],
      "name": "whitelisted",
      "outputs": [
        {
          "internalType": "bool",
          "name": "",
          "type": "bool"
        }
      ],
      "stateMutability": "view",
      "type": "function"
    },
    {
      "inputs": [],
      "name": "withdraw",
      "outputs": [],
      "stateMutability": "payable",
      "type": "function"
    }
  ],
  "bytecode": "0x60806040526040518060400160405280600581526020017f2e6a736f6e000000000000000000000000000000000000000000000000000000815250600c90805190602001906200005192919062000f0a565b5066470de4df820000600d55611388600e55600a600f556000601060006101000a81548160ff0219169083151502179055506000601060016101000a81548160ff021916908315150217905550348015620000ab57600080fd5b5060405162005d2238038062005d228339818101604052810190620000d191906200106f565b83838160009080519060200190620000eb92919062000f0a565b5080600190805190602001906200010492919062000f0a565b505050620001276200011b620001a760201b60201c565b620001af60201b60201c565b62000138826200027560201b60201c565b62000149816200032060201b60201c565b33601060026101000a81548173ffffffffffffffffffffffffffffffffffffffff021916908373ffffffffffffffffffffffffffffffffffffffff1602179055506200019d336005620003cb60201b60201c565b505050506200173e565b600033905090565b6000600a60009054906101000a900473ffffffffffffffffffffffffffffffffffffffff16905081600a60006101000a81548173ffffffffffffffffffffffffffffffffffffffff021916908373ffffffffffffffffffffffffffffffffffffffff1602179055508173ffffffffffffffffffffffffffffffffffffffff168173ffffffffffffffffffffffffffffffffffffffff167f8be0079c531659141344cd1fd0a4f28419497f9722a3daafe3b4186f6b6457e060405160405180910390a35050565b62000285620001a760201b60201c565b73ffffffffffffffffffffffffffffffffffffffff16620002ab6200047f60201b60201c565b73ffffffffffffffffffffffffffffffffffffffff161462000304576040517f08c379a0000000000000000000000000000000000000000000000000000000008152600401620002fb9062001414565b60405180910390fd5b80600b90805190602001906200031c92919062000f0a565b5050565b62000330620001a760201b60201c565b73ffffffffffffffffffffffffffffffffffffffff16620003566200047f60201b60201c565b73ffffffffffffffffffffffffffffffffffffffff1614620003af576040517f08c379a0000000000000000000000000000000000000000000000000000000008152600401620003a69062001414565b60405180910390fd5b8060119080519060200190620003c792919062000f0a565b5050565b6000620003dd620004a960201b60201c565b9050601060009054906101000a900460ff1615620003fa57600080fd5b600082116200040857600080fd5b600f548211156200041857600080fd5b600e548282620004299190620014ca565b11156200043557600080fd5b6000600190505b828111620004795762000463848284620004579190620014ca565b620004b660201b60201c565b8080620004709062001638565b9150506200043c565b50505050565b6000600a60009054906101000a900473ffffffffffffffffffffffffffffffffffffffff16905090565b6000600880549050905090565b620004d8828260405180602001604052806000815250620004dc60201b60201c565b5050565b620004ee83836200054a60201b60201c565b6200050360008484846200073060201b60201c565b62000545576040517f08c379a00000000000000000000000000000000000000000000000000000000081526004016200053c906200138c565b60405180910390fd5b505050565b600073ffffffffffffffffffffffffffffffffffffffff168273ffffffffffffffffffffffffffffffffffffffff161415620005bd576040517f08c379a0000000000000000000000000000000000000000000000000000000008152600401620005b490620013f2565b60405180910390fd5b620005ce81620008ea60201b60201c565b1562000611576040517f08c379a00000000000000000000000000000000000000000000000000000000081526004016200060890620013ae565b60405180910390fd5b62000625600083836200095660201b60201c565b6001600360008473ffffffffffffffffffffffffffffffffffffffff1673ffffffffffffffffffffffffffffffffffffffff1681526020019081526020016000206000828254620006779190620014ca565b92505081905550816002600083815260200190815260200160002060006101000a81548173ffffffffffffffffffffffffffffffffffffffff021916908373ffffffffffffffffffffffffffffffffffffffff160217905550808273ffffffffffffffffffffffffffffffffffffffff16600073ffffffffffffffffffffffffffffffffffffffff167fddf252ad1be2c89b69c2b068fc378daa952ba7f163c4a11628f55a4df523b3ef60405160405180910390a45050565b60006200075e8473ffffffffffffffffffffffffffffffffffffffff1662000a9d60201b62001f7e1760201c565b15620008dd578373ffffffffffffffffffffffffffffffffffffffff1663150b7a0262000790620001a760201b60201c565b8786866040518563ffffffff1660e01b8152600401620007b4949392919062001338565b602060405180830381600087803b158015620007cf57600080fd5b505af19250505080156200080357506040513d601f19601f8201168201806040525081019062000800919062001043565b60015b6200088c573d806000811462000836576040519150601f19603f3d011682016040523d82523d6000602084013e6200083b565b606091505b5060008151141562000884576040517f08c379a00000000000000000000000000000000000000000000000000000000081526004016200087b906200138c565b60405180910390fd5b805181602001fd5b63150b7a0260e01b7bffffffffffffffffffffffffffffffffffffffffffffffffffffffff1916817bffffffffffffffffffffffffffffffffffffffffffffffffffffffff191614915050620008e2565b600190505b949350505050565b60008073ffffffffffffffffffffffffffffffffffffffff166002600084815260200190815260200160002060009054906101000a900473ffffffffffffffffffffffffffffffffffffffff1673ffffffffffffffffffffffffffffffffffffffff1614159050919050565b6200096e83838362000ab060201b62001f911760201c565b600073ffffffffffffffffffffffffffffffffffffffff168373ffffffffffffffffffffffffffffffffffffffff161415620009bb57620009b58162000ab560201b60201c565b62000a03565b8173ffffffffffffffffffffffffffffffffffffffff168373ffffffffffffffffffffffffffffffffffffffff161462000a025762000a01838262000afe60201b60201c565b5b5b600073ffffffffffffffffffffffffffffffffffffffff168273ffffffffffffffffffffffffffffffffffffffff16141562000a505762000a4a8162000c7b60201b60201c565b62000a98565b8273ffffffffffffffffffffffffffffffffffffffff168273ffffffffffffffffffffffffffffffffffffffff161462000a975762000a96828262000dc360201b60201c565b5b5b505050565b600080823b905060008111915050919050565b505050565b6008805490506009600083815260200190815260200160002081905550600881908060018154018082558091505060019003906000526020600020016000909190919091505550565b6000600162000b188462000e4f60201b620015911760201c565b62000b24919062001527565b905060006007600084815260200190815260200160002054905081811462000c0a576000600660008673ffffffffffffffffffffffffffffffffffffffff1673ffffffffffffffffffffffffffffffffffffffff168152602001908152602001600020600084815260200190815260200160002054905080600660008773ffffffffffffffffffffffffffffffffffffffff1673ffffffffffffffffffffffffffffffffffffffff168152602001908152602001600020600084815260200190815260200160002081905550816007600083815260200190815260200160002081905550505b6007600084815260200190815260200160002060009055600660008573ffffffffffffffffffffffffffffffffffffffff1673ffffffffffffffffffffffffffffffffffffffff16815260200190815260200160002060008381526020019081526020016000206000905550505050565b6000600160088054905062000c91919062001527565b905060006009600084815260200190815260200160002054905060006008838154811062000ce8577f4e487b7100000000000000000000000000000000000000000000000000000000600052603260045260246000fd5b90600052602060002001549050806008838154811062000d31577f4e487b7100000000000000000000000000000000000000000000000000000000600052603260045260246000fd5b90600052602060002001819055508160096000838152602001908152602001600020819055506009600085815260200190815260200160002060009055600880548062000da7577f4e487b7100000000000000000000000000000000000000000000000000000000600052603160045260246000fd5b6001900381819060005260206000200160009055905550505050565b600062000ddb8362000e4f60201b620015911760201c565b905081600660008573ffffffffffffffffffffffffffffffffffffffff1673ffffffffffffffffffffffffffffffffffffffff168152602001908152602001600020600083815260200190815260200160002081905550806007600084815260200190815260200160002081905550505050565b60008073ffffffffffffffffffffffffffffffffffffffff168273ffffffffffffffffffffffffffffffffffffffff16141562000ec3576040517f08c379a000000000000000000000000000000000000000000000000000000000815260040162000eba90620013d0565b60405180910390fd5b600360008373ffffffffffffffffffffffffffffffffffffffff1673ffffffffffffffffffffffffffffffffffffffff168152602001908152602001600020549050919050565b82805462000f189062001602565b90600052602060002090601f01602090048101928262000f3c576000855562000f88565b82601f1062000f5757805160ff191683800117855562000f88565b8280016001018555821562000f88579182015b8281111562000f8757825182559160200191906001019062000f6a565b5b50905062000f97919062000f9b565b5090565b5b8082111562000fb657600081600090555060010162000f9c565b5090565b600062000fd162000fcb846200146a565b62001436565b90508281526020810184848401111562000fea57600080fd5b62000ff7848285620015cc565b509392505050565b600081519050620010108162001724565b92915050565b600082601f8301126200102857600080fd5b81516200103a84826020860162000fba565b91505092915050565b6000602082840312156200105657600080fd5b6000620010668482850162000fff565b91505092915050565b600080600080608085870312156200108657600080fd5b600085015167ffffffffffffffff811115620010a157600080fd5b620010af8782880162001016565b945050602085015167ffffffffffffffff811115620010cd57600080fd5b620010db8782880162001016565b935050604085015167ffffffffffffffff811115620010f957600080fd5b620011078782880162001016565b925050606085015167ffffffffffffffff8111156200112557600080fd5b620011338782880162001016565b91505092959194509250565b6200114a8162001562565b82525050565b60006200115d826200149d565b620011698185620014a8565b93506200117b818560208601620015cc565b620011868162001713565b840191505092915050565b6000620011a0603283620014b9565b91507f4552433732313a207472616e7366657220746f206e6f6e20455243373231526560008301527f63656976657220696d706c656d656e74657200000000000000000000000000006020830152604082019050919050565b600062001208601c83620014b9565b91507f4552433732313a20746f6b656e20616c7265616479206d696e746564000000006000830152602082019050919050565b60006200124a602a83620014b9565b91507f4552433732313a2062616c616e636520717565727920666f7220746865207a6560008301527f726f2061646472657373000000000000000000000000000000000000000000006020830152604082019050919050565b6000620012b2602083620014b9565b91507f4552433732313a206d696e7420746f20746865207a65726f20616464726573736000830152602082019050919050565b6000620012f4602083620014b9565b91507f4f776e61626c653a2063616c6c6572206973206e6f7420746865206f776e65726000830152602082019050919050565b6200133281620015c2565b82525050565b60006080820190506200134f60008301876200113f565b6200135e60208301866200113f565b6200136d604083018562001327565b818103606083015262001381818462001150565b905095945050505050565b60006020820190508181036000830152620013a78162001191565b9050919050565b60006020820190508181036000830152620013c981620011f9565b9050919050565b60006020820190508181036000830152620013eb816200123b565b9050919050565b600060208201905081810360008301526200140d81620012a3565b9050919050565b600060208201905081810360008301526200142f81620012e5565b9050919050565b6000604051905081810181811067ffffffffffffffff8211171562001460576200145f620016e4565b5b8060405250919050565b600067ffffffffffffffff821115620014885762001487620016e4565b5b601f19601f8301169050602081019050919050565b600081519050919050565b600082825260208201905092915050565b600082825260208201905092915050565b6000620014d782620015c2565b9150620014e483620015c2565b9250827fffffffffffffffffffffffffffffffffffffffffffffffffffffffffffffffff038211156200151c576200151b62001686565b5b828201905092915050565b60006200153482620015c2565b91506200154183620015c2565b92508282101562001557576200155662001686565b5b828203905092915050565b60006200156f82620015a2565b9050919050565b60007fffffffff0000000000000000000000000000000000000000000000000000000082169050919050565b600073ffffffffffffffffffffffffffffffffffffffff82169050919050565b6000819050919050565b60005b83811015620015ec578082015181840152602081019050620015cf565b83811115620015fc576000848401525b50505050565b600060028204905060018216806200161b57607f821691505b60208210811415620016325762001631620016b5565b5b50919050565b60006200164582620015c2565b91507fffffffffffffffffffffffffffffffffffffffffffffffffffffffffffffffff8214156200167b576200167a62001686565b5b600182019050919050565b7f4e487b7100000000000000000000000000000000000000000000000000000000600052601160045260246000fd5b7f4e487b7100000000000000000000000000000000000000000000000000000000600052602260045260246000fd5b7f4e487b7100000000000000000000000000000000000000000000000000000000600052604160045260246000fd5b6000601f19601f8301169050919050565b6200172f8162001576565b81146200173b57600080fd5b50565b6145d4806200174e6000396000f3fe6080604052600436106102465760003560e01c806355f804b311610139578063a22cb465116100b6578063d5abeb011161007a578063d5abeb011461084e578063d936547e14610879578063da3ef23f146108b6578063e985e9c5146108df578063f2c4ce1e1461091c578063f2fde38b1461094557610246565b8063a22cb4651461077d578063a475b5dd146107a6578063b88d4fde146107bd578063c6682862146107e6578063c87b56dd1461081157610246565b8063715018a6116100fd578063715018a6146106bc5780637f00c7a6146106d3578063893d20e8146106fc5780638da5cb5b1461072757806395d89b411461075257610246565b806355f804b3146105c35780635c975abb146105ec5780636352211e146106175780636c0360eb1461065457806370a082311461067f57610246565b80632f745c59116101c7578063438b63001161018b578063438b6300146104cc57806344a0d68a146105095780634a4c560d146105325780634f6ccce71461055b578063518302271461059857610246565b80632f745c591461041757806330cc7ae0146104545780633ccfd60b1461047d57806340c10f191461048757806342842e0e146104a357610246565b8063095ea7b31161020e578063095ea7b31461034457806313faede61461036d57806318160ddd14610398578063239c70ae146103c357806323b872dd146103ee57610246565b806301ffc9a71461024b57806302329a291461028857806306fdde03146102b1578063081812fc146102dc578063081c8c4414610319575b600080fd5b34801561025757600080fd5b50610272600480360381019061026d91906134c0565b61096e565b60405161027f9190613e9e565b60405180910390f35b34801561029457600080fd5b506102af60048036038101906102aa9190613497565b6109e8565b005b3480156102bd57600080fd5b506102c6610a81565b6040516102d39190613eb9565b60405180910390f35b3480156102e857600080fd5b5061030360048036038101906102fe9190613553565b610b13565b6040516103109190613e15565b60405180910390f35b34801561032557600080fd5b5061032e610b98565b60405161033b9190613eb9565b60405180910390f35b34801561035057600080fd5b5061036b6004803603810190610366919061345b565b610c26565b005b34801561037957600080fd5b50610382610d3e565b60405161038f919061411b565b60405180910390f35b3480156103a457600080fd5b506103ad610d44565b6040516103ba919061411b565b60405180910390f35b3480156103cf57600080fd5b506103d8610d51565b6040516103e5919061411b565b60405180910390f35b3480156103fa57600080fd5b5061041560048036038101906104109190613355565b610d57565b005b34801561042357600080fd5b5061043e6004803603810190610439919061345b565b610db7565b60405161044b919061411b565b60405180910390f35b34801561046057600080fd5b5061047b600480360381019061047691906132f0565b610e5c565b005b610485610f33565b005b6104a1600480360381019061049c919061345b565b610fef565b005b3480156104af57600080fd5b506104ca60048036038101906104c59190613355565b611087565b005b3480156104d857600080fd5b506104f360048036038101906104ee91906132f0565b6110a7565b6040516105009190613e7c565b60405180910390f35b34801561051557600080fd5b50610530600480360381019061052b9190613553565b6111a1565b005b34801561053e57600080fd5b50610559600480360381019061055491906132f0565b611227565b005b34801561056757600080fd5b50610582600480360381019061057d9190613553565b6112fe565b60405161058f919061411b565b60405180910390f35b3480156105a457600080fd5b506105ad611395565b6040516105ba9190613e9e565b60405180910390f35b3480156105cf57600080fd5b506105ea60048036038101906105e59190613512565b6113a8565b005b3480156105f857600080fd5b5061060161143e565b60405161060e9190613e9e565b60405180910390f35b34801561062357600080fd5b5061063e60048036038101906106399190613553565b611451565b60405161064b9190613e15565b60405180910390f35b34801561066057600080fd5b50610669611503565b6040516106769190613eb9565b60405180910390f35b34801561068b57600080fd5b506106a660048036038101906106a191906132f0565b611591565b6040516106b3919061411b565b60405180910390f35b3480156106c857600080fd5b506106d1611649565b005b3480156106df57600080fd5b506106fa60048036038101906106f59190613553565b6116d1565b005b34801561070857600080fd5b50610711611757565b60405161071e9190613e15565b60405180910390f35b34801561073357600080fd5b5061073c611781565b6040516107499190613e15565b60405180910390f35b34801561075e57600080fd5b506107676117ab565b6040516107749190613eb9565b60405180910390f35b34801561078957600080fd5b506107a4600480360381019061079f919061341f565b61183d565b005b3480156107b257600080fd5b506107bb6119be565b005b3480156107c957600080fd5b506107e460048036038101906107df91906133a4565b611a57565b005b3480156107f257600080fd5b506107fb611ab9565b6040516108089190613eb9565b60405180910390f35b34801561081d57600080fd5b5061083860048036038101906108339190613553565b611b47565b6040516108459190613eb9565b60405180910390f35b34801561085a57600080fd5b50610863611ca0565b604051610870919061411b565b60405180910390f35b34801561088557600080fd5b506108a0600480360381019061089b91906132f0565b611ca6565b6040516108ad9190613e9e565b60405180910390f35b3480156108c257600080fd5b506108dd60048036038101906108d89190613512565b611cc6565b005b3480156108eb57600080fd5b5061090660048036038101906109019190613319565b611d5c565b6040516109139190613e9e565b60405180910390f35b34801561092857600080fd5b50610943600480360381019061093e9190613512565b611df0565b005b34801561095157600080fd5b5061096c600480360381019061096791906132f0565b611e86565b005b60007f780e9d63000000000000000000000000000000000000000000000000000000007bffffffffffffffffffffffffffffffffffffffffffffffffffffffff1916827bffffffffffffffffffffffffffffffffffffffffffffffffffffffff191614806109e157506109e082611f96565b5b9050919050565b6109f0612078565b73ffffffffffffffffffffffffffffffffffffffff16610a0e611781565b73ffffffffffffffffffffffffffffffffffffffff1614610a64576040517f08c379a0000000000000000000000000000000000000000000000000000000008152600401610a5b9061405b565b60405180910390fd5b80601060006101000a81548160ff02191690831515021790555050565b606060008054610a90906143c9565b80601f0160208091040260200160405190810160405280929190818152602001828054610abc906143c9565b8015610b095780601f10610ade57610100808354040283529160200191610b09565b820191906000526020600020905b815481529060010190602001808311610aec57829003601f168201915b5050505050905090565b6000610b1e82612080565b610b5d576040517f08c379a0000000000000000000000000000000000000000000000000000000008152600401610b549061403b565b60405180910390fd5b6004600083815260200190815260200160002060009054906101000a900473ffffffffffffffffffffffffffffffffffffffff169050919050565b60118054610ba5906143c9565b80601f0160208091040260200160405190810160405280929190818152602001828054610bd1906143c9565b8015610c1e5780601f10610bf357610100808354040283529160200191610c1e565b820191906000526020600020905b815481529060010190602001808311610c0157829003601f168201915b505050505081565b6000610c3182611451565b90508073ffffffffffffffffffffffffffffffffffffffff168373ffffffffffffffffffffffffffffffffffffffff161415610ca2576040517f08c379a0000000000000000000000000000000000000000000000000000000008152600401610c99906140bb565b60405180910390fd5b8073ffffffffffffffffffffffffffffffffffffffff16610cc1612078565b73ffffffffffffffffffffffffffffffffffffffff161480610cf05750610cef81610cea612078565b611d5c565b5b610d2f576040517f08c379a0000000000000000000000000000000000000000000000000000000008152600401610d2690613fbb565b60405180910390fd5b610d3983836120ec565b505050565b600d5481565b6000600880549050905090565b600f5481565b610d68610d62612078565b826121a5565b610da7576040517f08c379a0000000000000000000000000000000000000000000000000000000008152600401610d9e906140db565b60405180910390fd5b610db2838383612283565b505050565b6000610dc283611591565b8210610e03576040517f08c379a0000000000000000000000000000000000000000000000000000000008152600401610dfa90613edb565b60405180910390fd5b600660008473ffffffffffffffffffffffffffffffffffffffff1673ffffffffffffffffffffffffffffffffffffffff168152602001908152602001600020600083815260200190815260200160002054905092915050565b610e64612078565b73ffffffffffffffffffffffffffffffffffffffff16610e82611781565b73ffffffffffffffffffffffffffffffffffffffff1614610ed8576040517f08c379a0000000000000000000000000000000000000000000000000000000008152600401610ecf9061405b565b60405180910390fd5b6000601260008373ffffffffffffffffffffffffffffffffffffffff1673ffffffffffffffffffffffffffffffffffffffff16815260200190815260200160002060006101000a81548160ff02191690831515021790555050565b610f3b612078565b73ffffffffffffffffffffffffffffffffffffffff16610f59611781565b73ffffffffffffffffffffffffffffffffffffffff1614610faf576040517f08c379a0000000000000000000000000000000000000000000000000000000008152600401610fa69061405b565b60405180910390fd5b3373ffffffffffffffffffffffffffffffffffffffff166108fc479081150290604051600060405180830381858888f19350505050610fed57600080fd5b565b6000610ff9610d44565b9050601060009054906101000a900460ff161561101557600080fd5b6000821161102257600080fd5b600f5482111561103157600080fd5b600e5482826110409190614258565b111561104b57600080fd5b6000600190505b8281116110815761106e8482846110699190614258565b6124df565b8080611079906143fb565b915050611052565b50505050565b6110a283838360405180602001604052806000815250611a57565b505050565b606060006110b483611591565b905060008167ffffffffffffffff8111156110f8577f4e487b7100000000000000000000000000000000000000000000000000000000600052604160045260246000fd5b6040519080825280602002602001820160405280156111265781602001602082028036833780820191505090505b50905060005b828110156111965761113e8582610db7565b828281518110611177577f4e487b7100000000000000000000000000000000000000000000000000000000600052603260045260246000fd5b602002602001018181525050808061118e906143fb565b91505061112c565b508092505050919050565b6111a9612078565b73ffffffffffffffffffffffffffffffffffffffff166111c7611781565b73ffffffffffffffffffffffffffffffffffffffff161461121d576040517f08c379a00000000000000000000000000000000000000000000000000000000081526004016112149061405b565b60405180910390fd5b80600d8190555050565b61122f612078565b73ffffffffffffffffffffffffffffffffffffffff1661124d611781565b73ffffffffffffffffffffffffffffffffffffffff16146112a3576040517f08c379a000000000000000000000000000000000000000000000000000000000815260040161129a9061405b565b60405180910390fd5b6001601260008373ffffffffffffffffffffffffffffffffffffffff1673ffffffffffffffffffffffffffffffffffffffff16815260200190815260200160002060006101000a81548160ff02191690831515021790555050565b6000611308610d44565b8210611349576040517f08c379a0000000000000000000000000000000000000000000000000000000008152600401611340906140fb565b60405180910390fd5b60088281548110611383577f4e487b7100000000000000000000000000000000000000000000000000000000600052603260045260246000fd5b90600052602060002001549050919050565b601060019054906101000a900460ff1681565b6113b0612078565b73ffffffffffffffffffffffffffffffffffffffff166113ce611781565b73ffffffffffffffffffffffffffffffffffffffff1614611424576040517f08c379a000000000000000000000000000000000000000000000000000000000815260040161141b9061405b565b60405180910390fd5b80600b908051906020019061143a929190613114565b5050565b601060009054906101000a900460ff1681565b6000806002600084815260200190815260200160002060009054906101000a900473ffffffffffffffffffffffffffffffffffffffff169050600073ffffffffffffffffffffffffffffffffffffffff168173ffffffffffffffffffffffffffffffffffffffff1614156114fa576040517f08c379a00000000000000000000000000000000000000000000000000000000081526004016114f190613ffb565b60405180910390fd5b80915050919050565b600b8054611510906143c9565b80601f016020809104026020016040519081016040528092919081815260200182805461153c906143c9565b80156115895780601f1061155e57610100808354040283529160200191611589565b820191906000526020600020905b81548152906001019060200180831161156c57829003601f168201915b505050505081565b60008073ffffffffffffffffffffffffffffffffffffffff168273ffffffffffffffffffffffffffffffffffffffff161415611602576040517f08c379a00000000000000000000000000000000000000000000000000000000081526004016115f990613fdb565b60405180910390fd5b600360008373ffffffffffffffffffffffffffffffffffffffff1673ffffffffffffffffffffffffffffffffffffffff168152602001908152602001600020549050919050565b611651612078565b73ffffffffffffffffffffffffffffffffffffffff1661166f611781565b73ffffffffffffffffffffffffffffffffffffffff16146116c5576040517f08c379a00000000000000000000000000000000000000000000000000000000081526004016116bc9061405b565b60405180910390fd5b6116cf60006124fd565b565b6116d9612078565b73ffffffffffffffffffffffffffffffffffffffff166116f7611781565b73ffffffffffffffffffffffffffffffffffffffff161461174d576040517f08c379a00000000000000000000000000000000000000000000000000000000081526004016117449061405b565b60405180910390fd5b80600f8190555050565b6000601060029054906101000a900473ffffffffffffffffffffffffffffffffffffffff16905090565b6000600a60009054906101000a900473ffffffffffffffffffffffffffffffffffffffff16905090565b6060600180546117ba906143c9565b80601f01602080910402602001604051908101604052809291908181526020018280546117e6906143c9565b80156118335780601f1061180857610100808354040283529160200191611833565b820191906000526020600020905b81548152906001019060200180831161181657829003601f168201915b5050505050905090565b611845612078565b73ffffffffffffffffffffffffffffffffffffffff168273ffffffffffffffffffffffffffffffffffffffff1614156118b3576040517f08c379a00000000000000000000000000000000000000000000000000000000081526004016118aa90613f7b565b60405180910390fd5b80600560006118c0612078565b73ffffffffffffffffffffffffffffffffffffffff1673ffffffffffffffffffffffffffffffffffffffff16815260200190815260200160002060008473ffffffffffffffffffffffffffffffffffffffff1673ffffffffffffffffffffffffffffffffffffffff16815260200190815260200160002060006101000a81548160ff0219169083151502179055508173ffffffffffffffffffffffffffffffffffffffff1661196d612078565b73ffffffffffffffffffffffffffffffffffffffff167f17307eab39ab6107e8899845ad3d59bd9653f200f220920489ca2b5937696c31836040516119b29190613e9e565b60405180910390a35050565b6119c6612078565b73ffffffffffffffffffffffffffffffffffffffff166119e4611781565b73ffffffffffffffffffffffffffffffffffffffff1614611a3a576040517f08c379a0000000000000000000000000000000000000000000000000000000008152600401611a319061405b565b60405180910390fd5b6001601060016101000a81548160ff021916908315150217905550565b611a68611a62612078565b836121a5565b611aa7576040517f08c379a0000000000000000000000000000000000000000000000000000000008152600401611a9e906140db565b60405180910390fd5b611ab3848484846125c3565b50505050565b600c8054611ac6906143c9565b80601f0160208091040260200160405190810160405280929190818152602001828054611af2906143c9565b8015611b3f5780601f10611b1457610100808354040283529160200191611b3f565b820191906000526020600020905b815481529060010190602001808311611b2257829003601f168201915b505050505081565b6060611b5282612080565b611b91576040517f08c379a0000000000000000000000000000000000000000000000000000000008152600401611b889061409b565b60405180910390fd5b60001515601060019054906101000a900460ff1615151415611c3f5760118054611bba906143c9565b80601f0160208091040260200160405190810160405280929190818152602001828054611be6906143c9565b8015611c335780601f10611c0857610100808354040283529160200191611c33565b820191906000526020600020905b815481529060010190602001808311611c1657829003601f168201915b50505050509050611c9b565b6000611c4961261f565b90506000815111611c695760405180602001604052806000815250611c97565b80611c73846126b1565b600c604051602001611c8793929190613de4565b6040516020818303038152906040525b9150505b919050565b600e5481565b60126020528060005260406000206000915054906101000a900460ff1681565b611cce612078565b73ffffffffffffffffffffffffffffffffffffffff16611cec611781565b73ffffffffffffffffffffffffffffffffffffffff1614611d42576040517f08c379a0000000000000000000000000000000000000000000000000000000008152600401611d399061405b565b60405180910390fd5b80600c9080519060200190611d58929190613114565b5050565b6000600560008473ffffffffffffffffffffffffffffffffffffffff1673ffffffffffffffffffffffffffffffffffffffff16815260200190815260200160002060008373ffffffffffffffffffffffffffffffffffffffff1673ffffffffffffffffffffffffffffffffffffffff16815260200190815260200160002060009054906101000a900460ff16905092915050565b611df8612078565b73ffffffffffffffffffffffffffffffffffffffff16611e16611781565b73ffffffffffffffffffffffffffffffffffffffff1614611e6c576040517f08c379a0000000000000000000000000000000000000000000000000000000008152600401611e639061405b565b60405180910390fd5b8060119080519060200190611e82929190613114565b5050565b611e8e612078565b73ffffffffffffffffffffffffffffffffffffffff16611eac611781565b73ffffffffffffffffffffffffffffffffffffffff1614611f02576040517f08c379a0000000000000000000000000000000000000000000000000000000008152600401611ef99061405b565b60405180910390fd5b600073ffffffffffffffffffffffffffffffffffffffff168173ffffffffffffffffffffffffffffffffffffffff161415611f72576040517f08c379a0000000000000000000000000000000000000000000000000000000008152600401611f6990613f1b565b60405180910390fd5b611f7b816124fd565b50565b600080823b905060008111915050919050565b505050565b60007f80ac58cd000000000000000000000000000000000000000000000000000000007bffffffffffffffffffffffffffffffffffffffffffffffffffffffff1916827bffffffffffffffffffffffffffffffffffffffffffffffffffffffff1916148061206157507f5b5e139f000000000000000000000000000000000000000000000000000000007bffffffffffffffffffffffffffffffffffffffffffffffffffffffff1916827bffffffffffffffffffffffffffffffffffffffffffffffffffffffff1916145b8061207157506120708261285e565b5b9050919050565b600033905090565b60008073ffffffffffffffffffffffffffffffffffffffff166002600084815260200190815260200160002060009054906101000a900473ffffffffffffffffffffffffffffffffffffffff1673ffffffffffffffffffffffffffffffffffffffff1614159050919050565b816004600083815260200190815260200160002060006101000a81548173ffffffffffffffffffffffffffffffffffffffff021916908373ffffffffffffffffffffffffffffffffffffffff160217905550808273ffffffffffffffffffffffffffffffffffffffff1661215f83611451565b73ffffffffffffffffffffffffffffffffffffffff167f8c5be1e5ebec7d5bd14f71427d1e84f3dd0314c0f7b2291e5b200ac8c7c3b92560405160405180910390a45050565b60006121b082612080565b6121ef576040517f08c379a00000000000000000000000000000000000000000000000000000000081526004016121e690613f9b565b60405180910390fd5b60006121fa83611451565b90508073ffffffffffffffffffffffffffffffffffffffff168473ffffffffffffffffffffffffffffffffffffffff16148061226957508373ffffffffffffffffffffffffffffffffffffffff1661225184610b13565b73ffffffffffffffffffffffffffffffffffffffff16145b8061227a57506122798185611d5c565b5b91505092915050565b8273ffffffffffffffffffffffffffffffffffffffff166122a382611451565b73ffffffffffffffffffffffffffffffffffffffff16146122f9576040517f08c379a00000000000000000000000000000000000000000000000000000000081526004016122f09061407b565b60405180910390fd5b600073ffffffffffffffffffffffffffffffffffffffff168273ffffffffffffffffffffffffffffffffffffffff161415612369576040517f08c379a000000000000000000000000000000000000000000000000000000000815260040161236090613f5b565b60405180910390fd5b6123748383836128c8565b61237f6000826120ec565b6001600360008573ffffffffffffffffffffffffffffffffffffffff1673ffffffffffffffffffffffffffffffffffffffff16815260200190815260200160002060008282546123cf91906142df565b925050819055506001600360008473ffffffffffffffffffffffffffffffffffffffff1673ffffffffffffffffffffffffffffffffffffffff16815260200190815260200160002060008282546124269190614258565b92505081905550816002600083815260200190815260200160002060006101000a81548173ffffffffffffffffffffffffffffffffffffffff021916908373ffffffffffffffffffffffffffffffffffffffff160217905550808273ffffffffffffffffffffffffffffffffffffffff168473ffffffffffffffffffffffffffffffffffffffff167fddf252ad1be2c89b69c2b068fc378daa952ba7f163c4a11628f55a4df523b3ef60405160405180910390a4505050565b6124f98282604051806020016040528060008152506129dc565b5050565b6000600a60009054906101000a900473ffffffffffffffffffffffffffffffffffffffff16905081600a60006101000a81548173ffffffffffffffffffffffffffffffffffffffff021916908373ffffffffffffffffffffffffffffffffffffffff1602179055508173ffffffffffffffffffffffffffffffffffffffff168173ffffffffffffffffffffffffffffffffffffffff167f8be0079c531659141344cd1fd0a4f28419497f9722a3daafe3b4186f6b6457e060405160405180910390a35050565b6125ce848484612283565b6125da84848484612a37565b612619576040517f08c379a000000000000000000000000000000000000000000000000000000000815260040161261090613efb565b60405180910390fd5b50505050565b6060600b805461262e906143c9565b80601f016020809104026020016040519081016040528092919081815260200182805461265a906143c9565b80156126a75780601f1061267c576101008083540402835291602001916126a7565b820191906000526020600020905b81548152906001019060200180831161268a57829003601f168201915b5050505050905090565b606060008214156126f9576040518060400160405280600181526020017f30000000000000000000000000000000000000000000000000000000000000008152509050612859565b600082905060005b6000821461272b578080612714906143fb565b915050600a8261272491906142ae565b9150612701565b60008167ffffffffffffffff81111561276d577f4e487b7100000000000000000000000000000000000000000000000000000000600052604160045260246000fd5b6040519080825280601f01601f19166020018201604052801561279f5781602001600182028036833780820191505090505b5090505b60008514612852576001826127b891906142df565b9150600a856127c79190614444565b60306127d39190614258565b60f81b81838151811061280f577f4e487b7100000000000000000000000000000000000000000000000000000000600052603260045260246000fd5b60200101907effffffffffffffffffffffffffffffffffffffffffffffffffffffffffffff1916908160001a905350600a8561284b91906142ae565b94506127a3565b8093505050505b919050565b60007f01ffc9a7000000000000000000000000000000000000000000000000000000007bffffffffffffffffffffffffffffffffffffffffffffffffffffffff1916827bffffffffffffffffffffffffffffffffffffffffffffffffffffffff1916149050919050565b6128d3838383611f91565b600073ffffffffffffffffffffffffffffffffffffffff168373ffffffffffffffffffffffffffffffffffffffff1614156129165761291181612bce565b612955565b8173ffffffffffffffffffffffffffffffffffffffff168373ffffffffffffffffffffffffffffffffffffffff1614612954576129538382612c17565b5b5b600073ffffffffffffffffffffffffffffffffffffffff168273ffffffffffffffffffffffffffffffffffffffff1614156129985761299381612d84565b6129d7565b8273ffffffffffffffffffffffffffffffffffffffff168273ffffffffffffffffffffffffffffffffffffffff16146129d6576129d58282612ec7565b5b5b505050565b6129e68383612f46565b6129f36000848484612a37565b612a32576040517f08c379a0000000000000000000000000000000000000000000000000000000008152600401612a2990613efb565b60405180910390fd5b505050565b6000612a588473ffffffffffffffffffffffffffffffffffffffff16611f7e565b15612bc1578373ffffffffffffffffffffffffffffffffffffffff1663150b7a02612a81612078565b8786866040518563ffffffff1660e01b8152600401612aa39493929190613e30565b602060405180830381600087803b158015612abd57600080fd5b505af1925050508015612aee57506040513d601f19601f82011682018060405250810190612aeb91906134e9565b60015b612b71573d8060008114612b1e576040519150601f19603f3d011682016040523d82523d6000602084013e612b23565b606091505b50600081511415612b69576040517f08c379a0000000000000000000000000000000000000000000000000000000008152600401612b6090613efb565b60405180910390fd5b805181602001fd5b63150b7a0260e01b7bffffffffffffffffffffffffffffffffffffffffffffffffffffffff1916817bffffffffffffffffffffffffffffffffffffffffffffffffffffffff191614915050612bc6565b600190505b949350505050565b6008805490506009600083815260200190815260200160002081905550600881908060018154018082558091505060019003906000526020600020016000909190919091505550565b60006001612c2484611591565b612c2e91906142df565b9050600060076000848152602001908152602001600020549050818114612d13576000600660008673ffffffffffffffffffffffffffffffffffffffff1673ffffffffffffffffffffffffffffffffffffffff168152602001908152602001600020600084815260200190815260200160002054905080600660008773ffffffffffffffffffffffffffffffffffffffff1673ffffffffffffffffffffffffffffffffffffffff168152602001908152602001600020600084815260200190815260200160002081905550816007600083815260200190815260200160002081905550505b6007600084815260200190815260200160002060009055600660008573ffffffffffffffffffffffffffffffffffffffff1673ffffffffffffffffffffffffffffffffffffffff16815260200190815260200160002060008381526020019081526020016000206000905550505050565b60006001600880549050612d9891906142df565b9050600060096000848152602001908152602001600020549050600060088381548110612dee577f4e487b7100000000000000000000000000000000000000000000000000000000600052603260045260246000fd5b906000526020600020015490508060088381548110612e36577f4e487b7100000000000000000000000000000000000000000000000000000000600052603260045260246000fd5b906000526020600020018190555081600960008381526020019081526020016000208190555060096000858152602001908152602001600020600090556008805480612eab577f4e487b7100000000000000000000000000000000000000000000000000000000600052603160045260246000fd5b6001900381819060005260206000200160009055905550505050565b6000612ed283611591565b905081600660008573ffffffffffffffffffffffffffffffffffffffff1673ffffffffffffffffffffffffffffffffffffffff168152602001908152602001600020600083815260200190815260200160002081905550806007600084815260200190815260200160002081905550505050565b600073ffffffffffffffffffffffffffffffffffffffff168273ffffffffffffffffffffffffffffffffffffffff161415612fb6576040517f08c379a0000000000000000000000000000000000000000000000000000000008152600401612fad9061401b565b60405180910390fd5b612fbf81612080565b15612fff576040517f08c379a0000000000000000000000000000000000000000000000000000000008152600401612ff690613f3b565b60405180910390fd5b61300b600083836128c8565b6001600360008473ffffffffffffffffffffffffffffffffffffffff1673ffffffffffffffffffffffffffffffffffffffff168152602001908152602001600020600082825461305b9190614258565b92505081905550816002600083815260200190815260200160002060006101000a81548173ffffffffffffffffffffffffffffffffffffffff021916908373ffffffffffffffffffffffffffffffffffffffff160217905550808273ffffffffffffffffffffffffffffffffffffffff16600073ffffffffffffffffffffffffffffffffffffffff167fddf252ad1be2c89b69c2b068fc378daa952ba7f163c4a11628f55a4df523b3ef60405160405180910390a45050565b828054613120906143c9565b90600052602060002090601f0160209004810192826131425760008555613189565b82601f1061315b57805160ff1916838001178555613189565b82800160010185558215613189579182015b8281111561318857825182559160200191906001019061316d565b5b509050613196919061319a565b5090565b5b808211156131b357600081600090555060010161319b565b5090565b60006131ca6131c584614167565b614136565b9050828152602081018484840111156131e257600080fd5b6131ed848285614387565b509392505050565b600061320861320384614197565b614136565b90508281526020810184848401111561322057600080fd5b61322b848285614387565b509392505050565b60008135905061324281614542565b92915050565b60008135905061325781614559565b92915050565b60008135905061326c81614570565b92915050565b60008151905061328181614570565b92915050565b600082601f83011261329857600080fd5b81356132a88482602086016131b7565b91505092915050565b600082601f8301126132c257600080fd5b81356132d28482602086016131f5565b91505092915050565b6000813590506132ea81614587565b92915050565b60006020828403121561330257600080fd5b600061331084828501613233565b91505092915050565b6000806040838503121561332c57600080fd5b600061333a85828601613233565b925050602061334b85828601613233565b9150509250929050565b60008060006060848603121561336a57600080fd5b600061337886828701613233565b935050602061338986828701613233565b925050604061339a868287016132db565b9150509250925092565b600080600080608085870312156133ba57600080fd5b60006133c887828801613233565b94505060206133d987828801613233565b93505060406133ea878288016132db565b925050606085013567ffffffffffffffff81111561340757600080fd5b61341387828801613287565b91505092959194509250565b6000806040838503121561343257600080fd5b600061344085828601613233565b925050602061345185828601613248565b9150509250929050565b6000806040838503121561346e57600080fd5b600061347c85828601613233565b925050602061348d858286016132db565b9150509250929050565b6000602082840312156134a957600080fd5b60006134b784828501613248565b91505092915050565b6000602082840312156134d257600080fd5b60006134e08482850161325d565b91505092915050565b6000602082840312156134fb57600080fd5b600061350984828501613272565b91505092915050565b60006020828403121561352457600080fd5b600082013567ffffffffffffffff81111561353e57600080fd5b61354a848285016132b1565b91505092915050565b60006020828403121561356557600080fd5b6000613573848285016132db565b91505092915050565b60006135888383613dc6565b60208301905092915050565b61359d81614313565b82525050565b60006135ae826141ec565b6135b8818561421a565b93506135c3836141c7565b8060005b838110156135f45781516135db888261357c565b97506135e68361420d565b9250506001810190506135c7565b5085935050505092915050565b61360a81614325565b82525050565b600061361b826141f7565b613625818561422b565b9350613635818560208601614396565b61363e81614531565b840191505092915050565b600061365482614202565b61365e818561423c565b935061366e818560208601614396565b61367781614531565b840191505092915050565b600061368d82614202565b613697818561424d565b93506136a7818560208601614396565b80840191505092915050565b600081546136c0816143c9565b6136ca818661424d565b945060018216600081146136e557600181146136f657613729565b60ff19831686528186019350613729565b6136ff856141d7565b60005b8381101561372157815481890152600182019150602081019050613702565b838801955050505b50505092915050565b600061373f602b8361423c565b91507f455243373231456e756d657261626c653a206f776e657220696e646578206f7560008301527f74206f6620626f756e64730000000000000000000000000000000000000000006020830152604082019050919050565b60006137a560328361423c565b91507f4552433732313a207472616e7366657220746f206e6f6e20455243373231526560008301527f63656976657220696d706c656d656e74657200000000000000000000000000006020830152604082019050919050565b600061380b60268361423c565b91507f4f776e61626c653a206e6577206f776e657220697320746865207a65726f206160008301527f64647265737300000000000000000000000000000000000000000000000000006020830152604082019050919050565b6000613871601c8361423c565b91507f4552433732313a20746f6b656e20616c7265616479206d696e746564000000006000830152602082019050919050565b60006138b160248361423c565b91507f4552433732313a207472616e7366657220746f20746865207a65726f2061646460008301527f72657373000000000000000000000000000000000000000000000000000000006020830152604082019050919050565b600061391760198361423c565b91507f4552433732313a20617070726f766520746f2063616c6c6572000000000000006000830152602082019050919050565b6000613957602c8361423c565b91507f4552433732313a206f70657261746f7220717565727920666f72206e6f6e657860008301527f697374656e7420746f6b656e00000000000000000000000000000000000000006020830152604082019050919050565b60006139bd60388361423c565b91507f4552433732313a20617070726f76652063616c6c6572206973206e6f74206f7760008301527f6e6572206e6f7220617070726f76656420666f7220616c6c00000000000000006020830152604082019050919050565b6000613a23602a8361423c565b91507f4552433732313a2062616c616e636520717565727920666f7220746865207a6560008301527f726f2061646472657373000000000000000000000000000000000000000000006020830152604082019050919050565b6000613a8960298361423c565b91507f4552433732313a206f776e657220717565727920666f72206e6f6e657869737460008301527f656e7420746f6b656e00000000000000000000000000000000000000000000006020830152604082019050919050565b6000613aef60208361423c565b91507f4552433732313a206d696e7420746f20746865207a65726f20616464726573736000830152602082019050919050565b6000613b2f602c8361423c565b91507f4552433732313a20617070726f76656420717565727920666f72206e6f6e657860008301527f697374656e7420746f6b656e00000000000000000000000000000000000000006020830152604082019050919050565b6000613b9560208361423c565b91507f4f776e61626c653a2063616c6c6572206973206e6f7420746865206f776e65726000830152602082019050919050565b6000613bd560298361423c565b91507f4552433732313a207472616e73666572206f6620746f6b656e2074686174206960008301527f73206e6f74206f776e00000000000000000000000000000000000000000000006020830152604082019050919050565b6000613c3b602f8361423c565b91507f4552433732314d657461646174613a2055524920717565727920666f72206e6f60008301527f6e6578697374656e7420746f6b656e00000000000000000000000000000000006020830152604082019050919050565b6000613ca160218361423c565b91507f4552433732313a20617070726f76616c20746f2063757272656e74206f776e6560008301527f72000000000000000000000000000000000000000000000000000000000000006020830152604082019050919050565b6000613d0760318361423c565b91507f4552433732313a207472616e736665722063616c6c6572206973206e6f74206f60008301527f776e6572206e6f7220617070726f7665640000000000000000000000000000006020830152604082019050919050565b6000613d6d602c8361423c565b91507f455243373231456e756d657261626c653a20676c6f62616c20696e646578206f60008301527f7574206f6620626f756e647300000000000000000000000000000000000000006020830152604082019050919050565b613dcf8161437d565b82525050565b613dde8161437d565b82525050565b6000613df08286613682565b9150613dfc8285613682565b9150613e0882846136b3565b9150819050949350505050565b6000602082019050613e2a6000830184613594565b92915050565b6000608082019050613e456000830187613594565b613e526020830186613594565b613e5f6040830185613dd5565b8181036060830152613e718184613610565b905095945050505050565b60006020820190508181036000830152613e9681846135a3565b905092915050565b6000602082019050613eb36000830184613601565b92915050565b60006020820190508181036000830152613ed38184613649565b905092915050565b60006020820190508181036000830152613ef481613732565b9050919050565b60006020820190508181036000830152613f1481613798565b9050919050565b60006020820190508181036000830152613f34816137fe565b9050919050565b60006020820190508181036000830152613f5481613864565b9050919050565b60006020820190508181036000830152613f74816138a4565b9050919050565b60006020820190508181036000830152613f948161390a565b9050919050565b60006020820190508181036000830152613fb48161394a565b9050919050565b60006020820190508181036000830152613fd4816139b0565b9050919050565b60006020820190508181036000830152613ff481613a16565b9050919050565b6000602082019050818103600083015261401481613a7c565b9050919050565b6000602082019050818103600083015261403481613ae2565b9050919050565b6000602082019050818103600083015261405481613b22565b9050919050565b6000602082019050818103600083015261407481613b88565b9050919050565b6000602082019050818103600083015261409481613bc8565b9050919050565b600060208201905081810360008301526140b481613c2e565b9050919050565b600060208201905081810360008301526140d481613c94565b9050919050565b600060208201905081810360008301526140f481613cfa565b9050919050565b6000602082019050818103600083015261411481613d60565b9050919050565b60006020820190506141306000830184613dd5565b92915050565b6000604051905081810181811067ffffffffffffffff8211171561415d5761415c614502565b5b8060405250919050565b600067ffffffffffffffff82111561418257614181614502565b5b601f19601f8301169050602081019050919050565b600067ffffffffffffffff8211156141b2576141b1614502565b5b601f19601f8301169050602081019050919050565b6000819050602082019050919050565b60008190508160005260206000209050919050565b600081519050919050565b600081519050919050565b600081519050919050565b6000602082019050919050565b600082825260208201905092915050565b600082825260208201905092915050565b600082825260208201905092915050565b600081905092915050565b60006142638261437d565b915061426e8361437d565b9250827fffffffffffffffffffffffffffffffffffffffffffffffffffffffffffffffff038211156142a3576142a2614475565b5b828201905092915050565b60006142b98261437d565b91506142c48361437d565b9250826142d4576142d36144a4565b5b828204905092915050565b60006142ea8261437d565b91506142f58361437d565b92508282101561430857614307614475565b5b828203905092915050565b600061431e8261435d565b9050919050565b60008115159050919050565b60007fffffffff0000000000000000000000000000000000000000000000000000000082169050919050565b600073ffffffffffffffffffffffffffffffffffffffff82169050919050565b6000819050919050565b82818337600083830152505050565b60005b838110156143b4578082015181840152602081019050614399565b838111156143c3576000848401525b50505050565b600060028204905060018216806143e157607f821691505b602082108114156143f5576143f46144d3565b5b50919050565b60006144068261437d565b91507fffffffffffffffffffffffffffffffffffffffffffffffffffffffffffffffff82141561443957614438614475565b5b600182019050919050565b600061444f8261437d565b915061445a8361437d565b92508261446a576144696144a4565b5b828206905092915050565b7f4e487b7100000000000000000000000000000000000000000000000000000000600052601160045260246000fd5b7f4e487b7100000000000000000000000000000000000000000000000000000000600052601260045260246000fd5b7f4e487b7100000000000000000000000000000000000000000000000000000000600052602260045260246000fd5b7f4e487b7100000000000000000000000000000000000000000000000000000000600052604160045260246000fd5b6000601f19601f8301169050919050565b61454b81614313565b811461455657600080fd5b50565b61456281614325565b811461456d57600080fd5b50565b61457981614331565b811461458457600080fd5b50565b6145908161437d565b811461459b57600080fd5b5056fea2646970667358221220530a37cfe3df96981ff1077efc73fb95f2a6ce5b713059bbae53b8b08c759c5364736f6c63430008000033",
  "linkReferences": {},
  "deployedLinkReferences": {}
}